:020000040800F2
:1000000000000824C10F0008B50D0008B70D000856
:10001000B90D0008BB0D0008BD0D00080000000070
:10002000000000000000000000000000BF0D0008FC
:10003000C10D000800000000C30D0008C50D000838
:10004000111000081110000811100008111000080C
:1000500011100008111000081110000811100008FC
:1000600011100008111000081110000811100008EC
:1000700011100008111000081110000811100008DC
:10008000111000081110000811100008CD0D000813
:10009000E50D0008111000081110000811100008EB
:1000A00011100008F50D00081110000811100008CB
:1000B000111000081110000811100008111000089C
:1000C000111000081110000811100008111000088C
:1000D000111000081110000811100008111000087C
:1000E0001110000811100008000000001110000895
:1000F000111000081110000811100008111000085C
:10010000111000081110000811100008111000084B
:10011000111000081110000811100008111000083B
:10012000111000081110000811100008111000082B
:10013000111000081110000811100008111000081B
:10014000111000081110000800000000000000005D
:1001500011100008111000081110000811100008FB
:1001600011100008111000081110000811100008EB
:1001700011100008111000081110000811100008DB
:1001800011100008111000081110000811100008CB
:1001900011100008111000081110000811100008BB
:1001A00011100008111000081110000811100008AB
:1001B000111000081110000811100008111000089B
:1001C000111000081110000811100008111000088B
:1001D000111000081110000811100008111000087B
:1001E000111000081110000811100008111000086B
:1001F000111000081110000811100008111000085B
:10020000111000081110000811100008111000084A
:10021000111000081110000811100008111000083A
:100220001110000811100008111000080000000053
:10023000111000081110000811100008111000081A
:10024000111000081110000811100008111000080A
:1002500011100008111000081110000811100008FA
:1002600011100008111000081110000811100008EA
:1002700011100008111000081110000811100008DA
:1002800011100008111000081110000800000000F3
:08029000111000081110000814
:1002980010B5054C237833B9044B13B10448AFF3B8
:1002A80000800123237010BD3C04002400000000DE
:1002B800704F000808B5034B1BB103490348AFF35F
:1002C800008008BD0000000040040024704F0008B2
:1002D80053B94AB9002908BF00281CBF4FF0FF31A5
:1002E8004FF0FF3000F074B9ADF1080C6DE904CEA1
:1002F80000F006F8DDF804E0DDE9022304B07047F9
:100308002DE9F047089D04468E46002B4DD18A42C0
:10031800944669D9B2FA82F252B101FA02F3C2F1F3
:10032800200120FA01F10CFA02FC41EA030E944084
:100338004FEA1C48210CBEFBF8F61FFA8CF708FBA5
:1003480016E341EA034306FB07F199420AD91CEB7D
:10035800030306F1FF3080F01F81994240F21C81AF
:10036800023E63445B1AA4B2B3FBF8F008FB1033F7
:1003780044EA034400FB07F7A7420AD91CEB04042C
:1003880000F1FF3380F00A81A74240F207816444FC
:10039800023840EA0640E41B00261DB1D440002381
:1003A800C5E900433146BDE8F0878B4209D9002DE5
:1003B80000F0EF800026C5E9000130463146BDE86F
:1003C800F087B3FA83F6002E4AD18B4202D38242D9
:1003D80000F2F980841A61EB030301209E46002D88
:1003E800E0D0C5E9004EDDE702B9FFDEB2FA82F2DD
:1003F800002A40F09280A1EB0C014FEA1C471FFA3B
:100408008CFE0126200CB1FBF7F307FB131140EA21
:1004180001410EFB03F0884208D91CEB010103F1EE
:10042800FF3802D2884200F2CB804346091AA4B2B0
:10043800B1FBF7F007FB101144EA01440EFB00FE84
:10044800A64508D91CEB040400F1FF3102D2A645E9
:1004580000F2BB800846A4EB0E0440EA03409CE788
:10046800C6F12007B34022FA07FC4CEA030C20FA35
:1004780007F401FA06F31C43F9404FEA1C4900FA55
:1004880006F3B1FBF9F8200C1FFA8CFE09FB1811D2
:1004980040EA014108FB0EF0884202FA06F20BD945
:1004A8001CEB010108F1FF3A80F08880884240F295
:1004B8008580A8F102086144091AA4B2B1FBF9F0D9
:1004C80009FB101144EA014100FB0EFE8E4508D9D4
:1004D8001CEB010100F1FF346CD28E456AD9023859
:1004E800614440EA0840A0FB0294A1EB0E01A1423E
:1004F800C846A64656D353D05DB1B3EB080261EBAC
:100508000E0101FA07F722FA06F3F1401F43C5E985
:10051800007100263146BDE8F087C2F12003D840BB
:100528000CFA02FC21FA03F3914001434FEA1C47FD
:100538001FFA8CFEB3FBF7F007FB10360B0C43EAEF
:10054800064300FB0EF69E4204FA02F408D91CEB9F
:10055800030300F1FF382FD29E422DD9023863449D
:100568009B1B89B2B3FBF7F607FB163341EA03413D
:1005780006FB0EF38B4208D91CEB010106F1FF388C
:1005880016D28B4214D9023E6144C91A46EA004683
:1005980038E72E46284605E70646E3E61846F8E615
:1005A8004B45A9D2B9EB020864EB0C0E0138A3E75E
:1005B8004646EAE7204694E74046D1E7D0467BE73F
:1005C800023B614432E7304609E76444023842E7B7
:1005D800704700BF844641EA000313F003036DD15E
:1005E800403A41D351F8043B40F8043B51F8043BEE
:1005F80040F8043B51F8043B40F8043B51F8043BF5
:1006080040F8043B51F8043B40F8043B51F8043BE4
:1006180040F8043B51F8043B40F8043B51F8043BD4
:1006280040F8043B51F8043B40F8043B51F8043BC4
:1006380040F8043B51F8043B40F8043B51F8043BB4
:1006480040F8043B51F8043B40F8043B51F8043BA4
:1006580040F8043B51F8043B40F8043B51F8043B94
:1006680040F8043B403ABDD2303211D351F8043B34
:1006780040F8043B51F8043B40F8043B51F8043B74
:1006880040F8043B51F8043B40F8043B103AEDD2E3
:100698000C3205D351F8043B40F8043B043AF9D234
:1006A800043208D0D2071CBF11F8013B00F8013B07
:1006B80001D30B8803806046704700BF082A13D314
:1006C8008B078DD010F003038AD0C3F10403D21A2C
:1006D800DB071CBF11F8013B00F8013B80D331F860
:1006E800023B20F8023B7BE7043AD9D3013A11F8E0
:1006F800013B00F8013BF9D20B7803704B7843704B
:100708008B7883706046704710B51648164B0360A7
:1007180000238360C36003744374837405224261B9
:10072800012282611021C161032101624262826259
:10073800C262026343638263C363082101640422C3
:1007480042648364C2640365426583652024C4658A
:1007580001664366826602F06BFE00B910BD00F0C8
:10076800C5F9FBE7FC04002400A0004008B51648C2
:10077800164B036000238360C3600374437483745F
:1007880005224261012282611021C16103210162B7
:1007980042628262C262026343638363C363082165
:1007A8000164042242648364C2640365426583650C
:1007B800C36501664366826602F03AFE00B908BD69
:1007C80000F094F9FBE700BF9C05002400A400405A
:1007D80010B5BAB004460021359136913791389159
:1007E8003991C02204A804F0FDFA23684A4A9342CA
:1007F80004D04A4A934248D03AB010BD4FF4004260
:100808000023CDE904234FF08053209304A801F07E
:10081800C9FB48BB424A136801331360012B26D039
:10082800404BD3F8E02042F00102C3F8E020D3F8AF
:10083800E03003F001030193019B4FF4C05335935B
:10084800022336930024379438940923399335A921
:10085800354802F0F7FA22462146132000F05AFCE8
:10086800132000F08DFCC7E700F040F9D2E72D4BCC
:10087800D3F8EC2042F48072C3F8EC20D3F8EC30C3
:1008880003F480730093009BCAE74FF400420023EF
:10089800CDE904234FF08053209304A801F082FB94
:1008A80048BB1F4A136801331360012B26D01D4B28
:1008B800D3F8E02042F00202C3F8E020D3F8E03099
:1008C80003F002030393039B4FF440533593022331
:1008D80036930024379438940923399335A913485B
:1008E80002F0B0FA22462146142000F013FC14202E
:1008F80000F046FC80E700F0F9F8D2E7094BD3F89E
:10090800EC2042F48072C3F8EC20D3F8EC3003F406
:1009180080730293029BCAE700A0004000A4004035
:1009280058040024004402580000025800040258E9
:1009380010B588B00023009301930222029201228D
:100948000392049305936946254802F0BBFE0028EC
:1009580040D1234C204602F0F9FE00220121204616
:1009680003F03AF869461F4802F0ACFE002834D17B
:100978001C4C204602F0EAFE00220121204603F02A
:100988002BF8194A40F2FF1111600023536093605D
:10099800136153619361D3611362144A1160536008
:1009A8009360136153619361D361136210494FF4EB
:1009B800017008600F4A0824D4604B608B600B619B
:1009C8004B618B6110605360936013615361936155
:1009D80008B010BD00F08AF8BBE700F087F8C7E759
:1009E800FC0400249C0500248C040024D804002462
:1009F80064040024B004002408B50246054BD960FD
:100A08001946054802F0BCFE08B9012008BD0020BF
:100A1800FCE700BF8C040024FC040024036812498E
:100A2800124A934218BF8B4200D0704700B58BB072
:100A38000F4B6A46402102F0DFFE009BA3F2012221
:100A4800072A02D90BB05DF804FB013BDBB2094A67
:100A58001370342000FB03F310330549064818448B
:100A680000F0F0F8EEE700BF00A4004000A000404E
:100A78005C0400243C0600244006002484B0134B88
:100A8800D3F8E02042F00202C3F8E020D3F8E020D7
:100A980002F002020192019AD3F8E02042F001022A
:100AA800C3F8E020D3F8E02002F001020292029A93
:100AB800D3F8E02042F00802C3F8E020D3F8E03091
:100AC80003F008030393039B04B0704700440258E3
:100AD8000268044B9A4200D07047034A13680133F6
:100AE8001360F9E700000140E807002472B6FEE74A
:100AF80000B59DB04C22002109A804F073F920220A
:100B0800002101A804F06EF9042002F0ABFA0023DA
:100B18000093254BDA6A22F00102DA62DB6A03F0FD
:100B280001030093214B9A6942F440429A619B6900
:100B380003F440430093009B1C4B9B6913F4005F34
:100B4800FAD0012309934FF480330A9302231293B6
:100B58001393149340221592169308221792189310
:100B68000C23199300231A931B9309A800F02AFB5E
:100B7800B0B93F230193032302930023039308236F
:100B880004934023059306934FF4806207920893D9
:100B9800022101A800F06AFF20B91DB05DF804FB2E
:100BA800FFF7A4FFFFF7A2FF00040058004802580F
:100BB80010B582B002F0C8FAFFF79AFF1C4BD3F8C1
:100BC800E02042F00072C3F8E020D3F8E03003F0F0
:100BD80000730193019BFFF751FFFFF795FDFFF7A6
:100BE800C5FD00F069F900F009F9FFF7A1FE114809
:100BF80003F00AF9104C01220521204600F084F880
:100C0800DFED0E0AB0EE601AB7EE000A204600F0DB
:100C180073F80B4B00221A705A709A70DA701A71B6
:100C28005A719A71DA7108210548FFF7E5FEFAE76B
:100C38000044025858080024EC0700240000000073
:100C4800E007002430B50246B0F80AE0A0F80CE04E
:100C58000B7891F801C04CEA032CA0F80AC08878F8
:100C6800CB7843EA00231BB2938007EE903AF8EE64
:100C7800E77A9FED1E7A27EE877AB2F9023007EEFF
:100C8800903AF8EEE77ADFED1A6A67EEA67A77EE21
:100C9800277AFDEEE77A17EE903A18B21080508066
:100CA8000C794B7943EA04231BB2124C84FB03549E
:100CB800DB17A3EB6403D3808B791372ACEB0E0EB6
:100CC800BEF5805F0ADD1369013B136113690CEB04
:100CD800433CD389ACEB0303536130BD1EF5805F01
:100CE800F4DA136901331361F0E700BF1325723D8D
:100CF800AFDD703F6766666680ED000AC0ED010AE9
:100D080080ED021A7047000010B50139342301FB49
:100D180003F30B4CE250022A0CD0DFED0A0AB0EEC6
:100D2800601AB1EE040A44F620631A46032100F063
:100D38001FF810BD342202FB0141034B8B60ECE726
:100D480040060024000000009A9999410366C26594
:100D5800816580ED000AC0ED010A80ED021A704736
:100D680080ED000AC0ED010A80ED021A704700000C
:100D780010B5034C4466034C8466FFF7E7FF10BDCB
:100D8800550D0008690D000882B0074BD3F8F42010
:100D980042F00202C3F8F420D3F8F43003F002035F
:100DA8000193019B02B0704700440258FEE7FEE73A
:100DB800FEE7FEE7FEE770477047704708B502F0A8
:100DC800F1F908BD10B5044C204602F05DFE20463E
:100DD80002F05AFE10BD00BFFC04002408B502480A
:100DE80002F052FE08BD00BF9C05002408B5024869
:100DF80003F056F808BD00BF5808002400B589B0B4
:100E08000023049305930693079301930293039396
:100E18001548164A0260C7224260836040F2E732F2
:100E2800C26003614361836103F08AF998B94FF4A2
:100E38008053049304A90C4803F0C0F970B9002347
:100E480001930293039301A9074803F053FA40B9A9
:100E580009B05DF804FBFFF749FEE8E7FFF746FE37
:100E6800EDE7FFF743FEF3E75808002400000140D0
:100E780002680F4B9A4200D0704700B583B00D4B03
:100E8800D3F8F02042F00102C3F8F020D3F8F03094
:100E980003F001030193019B00221146192000F081
:100EA80039F9192000F06CF903B05DF804FB00BFB4
:100EB800000001400044025808B51748174B03606A
:100EC8004FF4E133436000238360C36003610C2265
:100ED80042618361C36103624362836203F09BFEE4
:100EE80070B900210C4803F00EFF60B900210A48D0
:100EF80003F02EFF50B9084803F0E6FE48B908BDD4
:100F0800FFF7F4FDEDE7FFF7F1FDEFE7FFF7EEFD83
:100F1800F1E7FFF7EBFDF2E7A4080024004C0040DE
:100F280010B5B8B00446002133913491359136910B
:100F38003791C02202A803F055FF22681B4B9A4242
:100F480001D038B010BD02220023CDE9022302A847
:100F580001F028F830BB164BD3F8E82042F4002201
:100F6800C3F8E820D3F8E82002F400220092009A9F
:100F7800D3F8E02042F00802C3F8E020D3F8E030CC
:100F880003F008030193019B032333930223349353
:100F98000023359336930823379333A9054801F086
:100FA80051FFCEE7FFF7A2FDD5E700BF004C004098
:100FB80000440258000C0258DFF834D000F026F83C
:100FC8000C480D490D4A002302E0D458C45004339C
:100FD800C4188C42F9D30A4A0A4C002301E0136072
:100FE8000432A242FBD303F0D9FEFFF7E1FD7047BC
:100FF80000000824000000243C04002434500008A9
:101008003C04002440090024FEE700002D4BD3F8DF
:10101800882042F47002C3F888201A6942F010024E
:101028001A61294B1B6803F00F03062B06D8264AC2
:10103800136823F00F0343F007031360234B1A6868
:1010480042F001021A6000221A611968204A0A4017
:101058001A601D4B1B6813F0080F06D01A4A136854
:1010680023F00F0343F007031360184B00229A6123
:10107800DA611A62174999621749D96217491963DF
:101088005A639963DA6319645A64196821F48021F0
:1010980019601A664FF0B042D2F8E43043F4804346
:1010A800C2F8E4300E4B1A680E4B1340B3F1005FE0
:1010B80003D20D4B0122C3F808210C4B43F2D20294
:1010C8001A60704700ED00E000200052004402580A
:1010D8007FEDF6EA000202020000FF018002010132
:1010E8000010005C0000FFFF00800051004000522B
:1010F8000649CB6823F4E0631B041B0C000200F4D0
:10110800E0600343024A1A43CA60704700ED00E0FA
:101118000000FA0500B5174BDB68C3F30223C3F1DF
:10112800070CBCF1040F28BF4FF0040C03F1040EA8
:10113800BEF1060F14D9033B4FF0FF3E0EFA0CFC2C
:1011480021EA0C0199400EFA03F322EA030319433A
:10115800002807DB0901C9B2074B19545DF804FBE5
:101168000023E9E700F00F000901C9B2034B195445
:10117800F4E700BF00ED00E000E400E014ED00E05B
:10118800002807DB00F01F02400901239340024AB0
:1011980042F82030704700BF00E100E00138B0F1AC
:1011A800807F0BD24FF0E0235861054AF02182F886
:1011B80023100020986107221A61704701207047A8
:1011C80000ED00E0002800F0398338B504460368D4
:1011D80013F0010F25D0944A136903F03803926A7B
:1011E800102B15D0182B0FD06368B3F5803F3FD074
:1011F800002B53D18C4B1A6822F480321A601A687B
:1012080022F480221A6038E002F00302022AEBD1AD
:10121800854B1B6813F4003F03D06368002B00F074
:101228000F83236813F0020F00F0A1807E4A136930
:10123800926A13F038035AD0182B55D0E368002B64
:1012480000F0DE8078490A6822F0190213430B6027
:1012580001F0B4FF0546744B1B6813F0040F40F00F
:10126800AD8001F0ABFF401B0228F4D90320EEE269
:101278006D4A136843F48033136063682BB301F03D
:101288009DFF0546684B1B6813F4003FC9D101F068
:1012980095FF401B6428F5D90320D8E2B3F5A02FA9
:1012A80009D0614B1A6822F480321A601A6822F455
:1012B80080221A60E1E75C4B1A6842F480221A60C7
:1012C8001A6842F480321A60D7E701F077FF0546C2
:1012D800554B1B6813F4003FA3D001F06FFF401B70
:1012E8006428F5D90320B2E212F0030FA6D14E4BC1
:1012F8001B6813F0040F03D0E368002B00F0A282F0
:10130800494A136823F01903E1680B43136001F09D
:1013180055FF0546444B1B6813F0040F06D101F036
:101328004DFF401B0228F5D9032090E201F04CFF45
:1013380041F20303984212D82269402A07D03A4959
:101348004B6823F47C3343EA02334B600FE0364AA0
:10135800536823F47C3343F40033536007E0324A84
:10136800536823F0FE43216943EA0163536023680D
:1013780013F0100F00F088802B4A136903F038032C
:10138800926A082B56D0182B50D0E369002B00F036
:10139800B880254A136843F08003136001F00EFFFC
:1013A8000546214B1B6813F4807F40F0888001F0CC
:1013B80005FF401B0228F4D9032048E201F004FF8E
:1013C80041F20303984212D82269402A07D01649ED
:1013D8004B6823F47C3343EA02334B60C7E7124A75
:1013E800536823F47C3343F400335360BFE70E4A59
:1013F800536823F0FE43216943EA01635360B6E76B
:10140800094A136823F00103136001F0D7FE05466B
:10141800054B1B6813F0040FA9D001F0CFFE401B49
:101428000228F5D9032012E20044025802F0030210
:10143800012AAAD1A14B1B6813F4807F03D0E3696A
:10144800802B40F0018201F0BFFE41F20303984275
:1014580012D8226A202A07D098494B6823F0F8430B
:1014680043EA82634B600FE0944A536823F0F843E1
:1014780043F08043536007E0904AD36823F07C53DD
:10148800216A43EA0163D360236813F0080F60D030
:101498006369002B49D0894A536F43F001035367AE
:1014A80001F08CFE0546854B5B6F13F0020F50D19F
:1014B80001F084FE401B0228F5D90320C7E101F0A2
:1014C80083FE41F20303984212D8226A202A07D0E9
:1014D8007A494B6823F0F84343EA82634B60D3E7C9
:1014E800764A536823F0F84343F080435360CBE7D0
:1014F800724AD36823F07C53216A43EA0163D360BC
:10150800C2E76E4A136823F08003136001F056FEA9
:1015180005466A4B1B6813F4807FB5D001F04EFE78
:10152800401B0228F5D9032091E1644A536F23F048
:101538000103536701F042FE0546604B5B6F13F0F1
:10154800020F06D001F03AFE401B0228F5D903200D
:101558007DE1236813F0200F29D0A3699BB1574A76
:10156800136843F48053136001F028FE0546534B7B
:101578001B6813F4005F1AD101F020FE401B0228FB
:10158800F5D9032063E14D4A136823F480531360AF
:1015980001F014FE0546494B1B6813F4005F06D0A2
:1015A80001F00CFE401B0228F5D903204FE1236807
:1015B80013F0040F21D1636A002B00F047813F4AE2
:1015C800126902F03802182A00F0EE80022B79D056
:1015D8003A4A136823F08073136001F0EFFD044664
:1015E800364B1B6813F0007F00F0DC8001F0E6FD4D
:1015F800001B0228F4D9032029E1314A136843F477
:101608008073136001F0DAFD05462D4B1B6813F457
:10161800807F06D101F0D2FD401B6428F5D9032054
:1016280015E1A368012B0AD00BBB244B1A6F22F0DB
:1016380001021A671A6F22F004021A6704E01F4AAF
:10164800136F43F001031367A36833B301F0B6FDCA
:1016580005461A4B1B6F13F0020FACD101F0AEFD1B
:10166800401B41F288339842F3D90320EFE0052B61
:1016780009D0124B1A6F22F001021A671A6F22F072
:1016880004021A67E0E70D4B1A6F42F004021A676A
:101698001A6F42F001021A67D6E701F08FFD05467E
:1016A800064B1B6F13F0020F85D001F087FD401B1E
:1016B80041F288339842F3D90320C8E00044025825
:1016C80000480258694A136823F08073136001F0D8
:1016D80075FD0546654B1B6813F0007F06D001F0C9
:1016E8006DFD401B0228F5D90320B0E05F4B996AD5
:1016F8005F4A0A40A16AE06A41EA00110A439A6215
:10170800226B013AC2F30802616B0139490289B2BE
:101718000A43A16B0139090401F4FE010A43E16B94
:101728000139090601F0FE410A431A63DA6A22F018
:101738000102DA62596B4F4A0A40A16C42EAC102BF
:101748005A63DA6A22F00C02216C0A43DA62DA6A16
:1017580022F00202616C0A43DA62DA6A42F48032E9
:10176800DA62DA6A42F40032DA62DA6A42F4802231
:10177800DA62DA6A42F00102DA621A6842F08072CA
:101788001A6001F01BFD0446384B1B6813F0007FFC
:1017980006D101F013FD001B0228F5D9032056E0FD
:1017A800002054E0002052E0304A916A106B012B6F
:1017B8004ED001F00303A26A93424BD1C1F3051145
:1017C800E36A994248D1C0F30802236B013B9A426D
:1017D80044D1C0F34622636B013B9A4240D1C0F327
:1017E8000642A36B013B9A423CD1C0F30660E36B0F
:1017F800013B984238D11D4B5B6BC3F3CC03A26C01
:101808009A4201D1002022E0184AD36A23F001034A
:10181800D36201F0D3FC054601F0D0FCA842FBD00E
:10182800124A516B134B0B40A16C43EAC10353633B
:10183800D36A43F00103D362002008E00120704717
:10184800012004E0012002E0012000E0002038BD72
:101858000120FCE70120FAE70120F8E70120F6E77C
:101868000120F4E70120F2E70120F0E700440258E4
:101878000CFCFFFF0700FFFF744B1B6903F03803E4
:10188800102B00F0DE80182B10D00BB17048704779
:101898006E4B1B6813F0200F00F0D5806B4B186857
:1018A800C0F3C1006B4B23FA00F0704710B4674ACD
:1018B800916A01F00301946AC4F30510D36A03F036
:1018C800010C536BC3F3CC030CFB03F307EE903A04
:1018D800F8EE677A14F47C7F00F09380012965D0D4
:1018E800022900F09180E1B107EE100AF8EE476A8C
:1018F8009FED596A86EE267A544B1B6BC3F3080397
:1019080006EE903AF8EE666A9FED546A67EE867ABC
:1019180076EEA77AF7EE006A77EEA67A27EE277AB0
:1019280060E0136813F0200F23D011461268C2F349
:10193800C102484BD34007EE103AF8EE476A07EE6B
:10194800100AB8EE476A86EE867A0B6BC3F3080373
:1019580006EE903AF8EE666A9FED406A67EE867A80
:1019680076EEA77AF7EE006A77EEA67A27EE277A60
:1019780038E007EE100AF8EE476A9FED396A86EEFE
:10198800267A324B1B6BC3F3080306EE903AF8EE47
:10199800666A9FED326A67EE867A76EEA77AF7EE88
:1019A800006A77EEA67A27EE277A1BE007EE100A80
:1019B800F8EE476A9FED286A86EE267A234B1B6B62
:1019C800C3F3080306EE903AF8EE666A9FED236AC1
:1019D80067EE867A76EEA77AF7EE006A77EEA67A51
:1019E80027EE277A194B1B6BC3F34623013307EE07
:1019F800903AF8EE677AC7EE276AFCEEE67A17EEB9
:101A0800900A5DF8044B704707EE100AF8EE476A33
:101A18009FED146A86EE267A0C4B1B6BC3F3080302
:101A280006EE903AF8EE666A9FED0C6A67EE867AE3
:101A380076EEA77AF7EE006A77EEA67A27EE277A8F
:101A4800D0E7094870470348704700BF0044025870
:101A580000093D000090D0030024744A00000039BA
:101A68000024744C20BCBE4B40787D01002800F057
:101A7800328170B50D4604469B4B1B6803F00F037B
:101A88008B420BD2984A136823F00F030B43136061
:101A9800136803F00F038B4240F01F81236813F093
:101AA800040F0CD02269914B9B6903F070039A4292
:101AB80005D98E498B6923F070031A438A6123681C
:101AC80013F0080F0CD06269884BDB6903F07003D0
:101AD8009A4205D98549CB6923F070031A43CA6134
:101AE800236813F0100F0CD0A269804BDB6903F454
:101AF800E0639A4205D97D49CB6923F4E0631A4330
:101B0800CA61236813F0200F0CD0E269774B1B6A77
:101B180003F070039A4205D974490B6A23F07003E5
:101B28001A430A62236813F0020F0CD0E2686F4B65
:101B38009B6903F00F039A4205D96C498B6923F01E
:101B48000F031A438A61236813F0010F41D0674AD3
:101B5800936923F47063A1680B4393616368022B54
:101B68000AD0032B27D0012B2CD0604A126812F020
:101B7800040F06D10120ADE0126812F4003F00F016
:101B8800AE805A490A6922F0070213430B6101F03B
:101B980015FB0646554B1B6903F038036268B3EB27
:101BA800C20F16D001F00AFB801B41F2883398421D
:101BB800F0D903208EE04D4A126812F0007FE0D180
:101BC800012087E0494A126812F4807FD9D10120A8
:101BD80080E0236813F0020F0CD0E268434B9B6946
:101BE80003F00F039A4205D240498B6923F00F0393
:101BF8001A438A613C4B1B6803F00F03AB420AD9B6
:101C0800394A136823F00F032B431360136803F05A
:101C18000F03AB4265D1236813F0040F0CD022697F
:101C2800324B9B6903F070039A4205D22F498B69A6
:101C380023F070031A438A61236813F0080F0CD04D
:101C480062692A4BDB6903F070039A4205D227497F
:101C5800CB6923F070031A43CA61236813F0100F8D
:101C68000CD0A269214BDB6903F4E0639A4205D2E8
:101C78001E49CB6923F4E0631A43CA61236813F051
:101C8800200F0CD0E269194B1B6A03F070039A42CB
:101C980005D216490B6A23F070031A430A62FFF74C
:101CA800EBFD12498B69C3F30323114AD35C03F09C
:101CB8001F03D8408B6903F00F03D35C03F01F03A5
:101CC80020FA03F30B4A13600B4B18600B4B186890
:101CD80001F012FA70BD012070470120FAE70120D7
:101CE800F8E70120F6E700BF002000520044025840
:101CF800D44F000804000024000000240C00002435
:101D080008B5FFF7B9FD0B4A9369C3F303230A49E2
:101D1800CB5C03F01F0320FA03F3926902F00F0271
:101D2800885C00F01F0023FA00F0044A1060044A9F
:101D3800136008BD00440258D44F00080400002472
:101D48000000002408B5FFF7DBFF054BDB69C3F390
:101D58000213044AD35C03F01F03D84008BD00BF38
:101D680000440258D44F000808B5FFF7C9FF054BD7
:101D7800DB69C3F30223044AD35C03F01F03D84092
:101D880008BD00BF00440258D44F0008404B9B6A6E
:101D980003F00303032B79D070B505460E463C4A81
:101DA800136823F08063136001F008FA0446384B87
:101DB8001B6813F0006F06D001F000FA031B022B1A
:101DC800F5D9032070BD324B9A6A22F47C32296817
:101DD80042EA01329A626A68013AC2F30802A968C3
:101DE8000139490289B20A43E9680139090401F451
:101DF800FE010A4329690139090601F0FE410A4337
:101E08009A63DA6A22F0C00269690A43DA62DA6A16
:101E180022F02002A9690A43DA62DA6A22F0100283
:101E2800DA62D96B1B4A0A40E96942EAC102DA63FD
:101E3800DA6A42F01002DA62C6B91A46DB6A43F47B
:101E48000023D362124A136843F08063136001F0E1
:101E5800B5F904460E4B1B6813F0006F14D101F05E
:101E6800ADF9001B0228F5D90320ABE7012E05D0F8
:101E7800074AD36A43F40013D362E3E7044AD36AF8
:101E880043F48013D362DDE700209BE7012070470D
:101E9800004402580700FFFF404B9B6A03F003030E
:101EA800032B79D070B505460E463C4A136823F0DB
:101EB8008053136001F082F90446384B1B6813F015
:101EC800005F06D001F07AF9031B022BF5D9032035
:101ED80070BD324B9A6A22F07C72296842EA01523C
:101EE8009A626A68013AC2F30802A968013949028C
:101EF80089B20A43E9680139090401F4FE010A4379
:101F080029690139090601F0FE410A431A64DA6AAF
:101F180022F4406269690A43DA62DA6A22F40072DA
:101F2800A9690A43DA62DA6A22F48072DA62596CC1
:101F38001B4A0A40E96942EAC1025A64DA6A42F471
:101F48008072DA62C6B91A46DB6A43F48003D36248
:101F5800124A136843F08053136001F02FF90446C6
:101F68000E4B1B6813F0005F14D101F027F9001B1A
:101F78000228F5D90320ABE7012E05D0074AD36A1A
:101F880043F08073D362E3E7044AD36A43F400035F
:101F9800D362DDE700209BE7012070470044025828
:101FA8000700FFFFF8B50446036813F0006F30D050
:101FB800836EB3F5001F26D00ED8EBB1B3F5801FA2
:101FC80007D102210830FFF7E1FE054645B12E464C
:101FD80021E0012635461EE0B3F5401F09D1002552
:101FE800984A136D23F44013A16E0B431365002622
:101FF80011E0012635460EE0924AD36A43F40033D5
:10200800D3620025ECE702212830FFF745FF05469B
:10201800DCE700263546236813F4807F14D0A36DCF
:10202800042B32D8DFE803F003232A080800854A86
:10203800D36A43F40033D36255BB824A136D23F04D
:102048000703A16D0B431365236813F4007F31D098
:10205800E36D802B4CD020D8002B43D0402B19D1D6
:10206800002104F10800FFF791FE05461AE000215F
:1020780004F10800FFF78AFE0546DDE7002104F1B8
:102088002800FFF709FF0546D6E701263546DBE7B6
:102098002E46D9E7012635460CE0C02B02D0B3F511
:1020A800807F1CD15DBB674A136D23F4E073E16D3B
:1020B8000B431365236813F4806F46D0D4F8A83017
:1020C800B3F5800F39D01FD88BB3B3F5001F18D1E3
:1020D800002104F10800FFF759FE05461AE0012621
:1020E8003546E7E7574AD36A43F40033D362D9E762
:1020F800002104F12800FFF7CFFE0546D2E72E465F
:10210800D8E70126354620E0B3F5C00F02D0B3F575
:10211800000F09D1C5B94B4A936D23F46003D4F875
:10212800A8100B43936510E0012635460DE0454A9B
:10213800D36A43F40033D362ECE7002104F12800AA
:10214800FFF7AAFE0546E5E72E46236813F4006F5D
:1021580024D0D4F8AC30B3F1007F42D00ED8002B95
:1021680039D0B3F1807F06D1002104F10800FFF7D0
:102178000DFE054608E0012635460FE0B3F1407F25
:1021880002D0B3F1806F23D1002D31D12D4A936D48
:1021980023F0E063D4F8AC100B439365236813F085
:1021A800007F2ED0E36C202B40D026D833B1102BE3
:1021B80020D1244AD36A43F40033D362002D3CD1A2
:1021C800204AD36C23F03003E16C0B43D36418E04E
:1021D80001263546E2E71B4AD36A43F40033D3624B
:1021E800D2E7002104F12800FFF756FE0546CBE7A9
:1021F8002E46D3E70126354603E0302BDED00126F4
:102208003546236813F4805F2DD0236EB3F5005F45
:102218004FD019D8002B46D0B3F5805F0FD10021DD
:1022280004F10800FFF7B2FD054613E0022104F1AE
:102238000800FFF7ABFD0546C0E72E46E1E701269B
:10224800354610E000440258B3F5405F02D0B3F5BC
:10225800804F25D1002D33D1774A136D23F4E04305
:10226800216E0B431365236813F4005F38D0636E47
:10227800B3F5003F53D028D843B1B3F5803F21D1FF
:10228800012104F10800FFF781FD0546002D4DD11D
:10229800694A136D23F4E023616E0B4313651FE055
:1022A80001263546DFE7644AD36A43F40033D36234
:1022B800D0E7002104F12800FFF7EEFD0546C9E745
:1022C8002E46D0E7012635460AE0B3F5802FDDD04B
:1022D800B3F5A02FDAD0B3F5403FD7D00126354665
:1022E800236813F4804F31D0D4F8B030B3F1005FD5
:1022F80045D020D843B1B3F1805F19D1012104F151
:102308000800FFF743FD0546002D3FD14A4A936D6B
:1023180023F0E043D4F8B0100B43936516E0012195
:1023280004F12800FFF7B8FD0546AFE72E46D7E7CA
:10233800012635460AE0B3F1804FE5D0B3F1A04F4E
:10234800E2D0B3F1405FDFD001263546236813F4AD
:10235800004F09D0236FB3F1805F19D0B3F1005F4C
:1023680024D0D3B101263546236813F0807F33D0BB
:10237800A36C032B5BD8DFE803F027225327012146
:1023880004F12800FFF788FD0546BDE72E46DDE786
:10239800294AD36A43F40033D36275B9264A136DC8
:1023A80023F04053216F0B431365DDE7012104F14E
:1023B8000800FFF7EBFC0546EFE72E46D4E71E4A78
:1023C800D36A43F40033D362A5BB1B4AD36C23F012
:1023D8000303A16C0B43D364236813F4800F2DD13E
:1023E800236813F0010F00F0A580E36F282B00F29B
:1023F8009F80DFE803F08D9D9D9D9D9D9D9D879D00
:102408009D9D9D9D9D9D969D9D9D9D9D9D9D8D9D0B
:102418009D9D9D9D9D9D8D9D9D9D9D9D9D9D8D00A1
:10242800022104F10800FFF7B1FC0546CCE70126BC
:102438003546D1E72E46CFE700440258914A136843
:1024480043F48073136000F0B9FE07468D4B1B6898
:1024580013F4807F05D100F0B1FEC01B6428F5D9C4
:102468000325002D4AD1884B1B6FD4F8B420534064
:1024780013F4407F0CD0844B1A6F22F44072196F0A
:1024880041F480311967196F21F4803119671A678F
:10249800D4F8B430B3F5807F15D08DBBD4F8B43000
:1024A80003F44072B2F5407F1ED0774A136923F4D3
:1024B8007C53136174490B6FD4F8B420C2F30B0238
:1024C80013430B678CE700F079FE07466E4B1B6FD2
:1024D80013F0020FE1D100F071FEC01B41F2883306
:1024E8009842F3D90325D8E76748026922F47C5259
:1024F800664901EA131313430361DBE72E466FE7CE
:102508002E466DE7012104F10800FFF73FFC054660
:10251800E5B95D4A536D23F03803E16F0B4353650A
:1025280008E0012104F12800FFF7B6FC0546EFE7B3
:1025380001263546236813F0020F17D0A36F052B29
:1025480028D8DFE803F00B05200B0B0B2E46F1E72C
:10255800012104F10800FFF719FC0546EDB94A4AC4
:10256800536D23F00703A16F0B435365236813F0E2
:10257800040F23D0D4F89430052B45D8DFE803F0B6
:10258800150F3D151515012104F12800FFF784FCEE
:102598000546E3E701263546E8E72E46E6E701214A
:1025A80004F10800FFF7F2FB054685BB364A936D38
:1025B80023F00703D4F894100B439365236813F0B2
:1025C800200F34D0D4F89030B3F1005F4ED023D828
:1025D80043B1B3F1805F1CD1002104F10800FFF77B
:1025E800D5FB0546002D48D1274A536D23F0E0431B
:1025F800D4F890100B43536519E0012104F1280029
:10260800FFF74AFC0546D0E701263546D6E72E46B1
:10261800D4E7012635460AE0B3F1804FE2D0B3F1A2
:10262800A04FDFD0B3F1405FDCD0012635462368E8
:1026380013F0400F37D0D4F89C30B3F5006F53D067
:1026480026D843B1B3F5806F19D1002104F10800F1
:10265800FFF79CFB0546002D4DD10B4A936D23F4E3
:10266800E053D4F89C100B4393651CE0022104F15D
:102678002800FFF711FC0546B4E72E46D7E70126E8
:10268800354610E00048025800440258CFFFFF00CA
:10269800B3F5805FDFD0B3F5A05FDCD0B3F5406F52
:1026A800D9D001263546236813F0800F33D0D4F8EB
:1026B800A030B3F5804F00F0A38021D843B1B3F523
:1026C800005F1AD1002104F10800FFF75FFB0546FF
:1026D800002D40F09C80814A936D23F46043D4F828
:1026E800A0100B43936516E0022104F12800FFF7C0
:1026F800D3FB0546AFE72E46D5E7012635460AE067
:10270800B3F5004FE4D0B3F5204FE1D0B3F5C04F97
:10271800DED001263546236813F0080F0CD0D4F814
:102728008430B3F5805F74D06C4A536D23F4405302
:10273800D4F884100B435365236813F0100F0CD0A2
:10274800D4F89830B3F5807F6CD0644A936D23F445
:102758004073D4F898100B439365236813F4002F43
:102768000BD0D4F8A430B3F5803F74D0B3F5003F54
:1027780067D0002B5FD001263546236813F4802FDD
:102788000CD0D4F88830B3F5001F7CD0B3F5401FC7
:102798006FD0B3F5801F67D001263546236813F440
:1027A800803F08D0236D002B76D0B3F5803F00F032
:1027B800818001263546236813F0005F40F083804E
:1027C800236813F4003F00F08E80D4F88030B3F50E
:1027D800807F00F0EC8040F28380B3F5007F03D067
:1027E800B3F5407F40F0E180002D40F0E6803B4AA1
:1027F800536D23F44073D4F880100B43536572E093
:10280800022104F12800FFF747FB054660E72E4642
:1028180081E7022104F12800FFF73EFB002883D05E
:10282800012681E7022104F12800FFF735FB002883
:102838008BD0012689E7002104F10800FFF7A6FAEA
:1028480005467DB9254A936D23F44033D4F8A41086
:102858000B43936591E7022104F12800FFF71CFB65
:102868000546EEE72E4688E71C4AD36A43F4003350
:10287800D3627DB9194A536D23F44013D4F88810F4
:102888000B4353658AE7012104F12800FFF704FB95
:102898000546EEE72E4681E7104AD36A43F4003333
:1028A800D36275B90D4AD36C23F48033216D0B4381
:1028B800D36480E7022104F10800FFF767FA0546B0
:1028C800EFE72E4677E7022104F12800FFF7E4FA44
:1028D80000283FF475AF012672E700BF0044025894
:1028E800002B81D00126236813F4801F06D04F4A9D
:1028F800136D23F00043616F0B431365236813F0D6
:10290800805F07D0494A136923F48043D4F8B8108C
:102918000B431361236813F4001F06D0434A136D59
:1029280023F08073E16E0B431365236813F0804F27
:1029380009D03E4B1A6922F400421A611A69D4F888
:10294800BC100A431A612368002B06DA374AD36C95
:1029580023F04053616D0B43D364236813F4000FD5
:1029680007D0324A536D23F44003D4F88C100B433C
:102978005365636813F0010F21D1636813F0020FE8
:1029880026D1636813F0040F2BD1636813F0080F86
:1029980030D1636813F0100F35D1636813F0200F3E
:1029A8003AD106B101263046F8BD01269BE71F4AF9
:1029B800D36A43F40033D36216E72E4693E7002127
:1029C80004F10800FFF7E2F90028D6D00646D4E75C
:1029D800012104F10800FFF7D9F90028D1D00646F3
:1029E800CFE7022104F10800FFF7D0F90028CCD086
:1029F8000646CAE7002104F12800FFF74DFA00282F
:102A0800C7D00646C5E7012104F12800FFF744FABC
:102A18000028C2D00646C0E7022104F12800FFF7CB
:102A28003BFA0028BDD00646BBE700BF0044025869
:102A380008B5FFF765F9054B1B6AC3F30213044A8F
:102A4800D35C03F01F03D84008BD00BF0044025800
:102A5800D44F000810B5774A916A946AC4F3053ECA
:102A6800D36AC3F3001CD36BC3F3CC030CFB03F38F
:102A780014F47C3F00F0D88001F0030107EE903A8F
:102A8800F8EE677A012965D0022900F0B080E1B13B
:102A980007EE10EAB8EE477A9FED676AC6EE076A56
:102AA800644B9B6BC3F3080307EE103AB8EE477A02
:102AB8009FED626A67EE867A77EE277AB7EE007A3C
:102AC80077EE877A66EEA76A60E0136813F0200F46
:102AD80023D011461268C2F3C102594BD34007EE06
:102AE800103AB8EE477A06EE90EAB8EE666AC7EE94
:102AF800066A8B6BC3F3080307EE103AB8EE477A01
:102B08009FED4E6A67EE867A77EE277AB7EE007AFF
:102B180077EE877A66EEA76A38E007EE10EAB8EE35
:102B2800477A9FED486AC6EE076A424B9B6BC3F330
:102B3800080307EE103AB8EE477A9FED406A67EE51
:102B4800867A77EE277AB7EE007A77EE877A66EE9E
:102B5800A76A1BE007EE10EAB8EE477A9FED366ADF
:102B6800C6EE076A334B9B6BC3F3080307EE103AB4
:102B7800B8EE477A9FED316A67EE867A77EE277A64
:102B8800B7EE007A77EE877A66EEA76A294A936BE2
:102B9800C3F3462307EE103AB8EE477AB7EE006A59
:102BA80037EE067AC6EE877AFCEEE77AC0ED007A51
:102BB800936BC3F3064307EE103AB8EE477A37EE45
:102BC800067AC6EE877AFCEEE77AC0ED017A936B57
:102BD800C3F3066307EE903AF8EE677A77EE867AE3
:102BE80086EEA77ABCEEC77A80ED027A10BD07EEB2
:102BF80010EAB8EE477A9FED146AC6EE076A0D4BE5
:102C08009B6BC3F3080307EE103AB8EE477A9FEDC3
:102C18000B6A67EE867A77EE277AB7EE007A77EE58
:102C2800877A66EEA76AB1E7002303604360836092
:102C3800DCE700BF004402580024744A0000003951
:102C48000090D0030024744C20BCBE4B10B5774ACA
:102C5800916A946AC4F3055ED36AC3F3002C536C7B
:102C6800C3F3CC030CFB03F314F07C7F00F0D88093
:102C780001F0030107EE903AF8EE677A012965D072
:102C8800022900F0B080E1B107EE10EAB8EE477A09
:102C98009FED676AC6EE076A644B1B6CC3F30803B3
:102CA80007EE103AB8EE477A9FED626A67EE867AC9
:102CB80077EE277AB7EE007A77EE877A66EEA76A1C
:102CC80060E0136813F0200F23D011461268C2F396
:102CD800C102594BD34007EE103AB8EE477A06EED8
:102CE80090EAB8EE666AC7EE066A0B6CC3F308038F
:102CF80007EE103AB8EE477A9FED4E6A67EE867A8D
:102D080077EE277AB7EE007A77EE877A66EEA76ACB
:102D180038E007EE10EAB8EE477A9FED486AC6EE4B
:102D2800076A424B1B6CC3F3080307EE103AB8EE70
:102D3800477A9FED406A67EE867A77EE277AB7EE94
:102D4800007A77EE877A66EEA76A1BE007EE10EA4C
:102D5800B8EE477A9FED366AC6EE076A334B1B6CAE
:102D6800C3F3080307EE103AB8EE477A9FED316ACD
:102D780067EE867A77EE277AB7EE007A77EE877A6B
:102D880066EEA76A294A136CC3F3462307EE103A86
:102D9800B8EE477AB7EE006A37EE067AC6EE877A5B
:102DA800FCEEE77AC0ED007A136CC3F3064307EE36
:102DB800103AB8EE477A37EE067AC6EE877AFCEE16
:102DC800E77AC0ED017A136CC3F3066307EE903A15
:102DD800F8EE677A77EE867A86EEA77ABCEEC77A3F
:102DE80080ED027A10BD07EE10EAB8EE477A9FED43
:102DF800146AC6EE076A0D4B1B6CC3F3080307EE93
:102E0800103AB8EE477A9FED0B6A67EE867A77EE4E
:102E1800277AB7EE007A77EE877A66EEA76AB1E787
:102E28000023036043608360DCE700BF004402586E
:102E38000024744A000000390090D0030024744C28
:102E480020BCBE4BF0B583B000236BE085685E0004
:102E58000324B44025EA0405CC68B4402C438460BC
:102E6800446824EA0C0C4C68C4F300149C4044EAFF
:102E78000C04446068E0DD08083550F8256003F06C
:102E880007044FEA840C0F2404FA0CF426EA040E13
:102E98000C6904FA0CF444EA0E0440F825406BE08F
:102EA800092400E0002404FA0EF42C430CF1020C6F
:102EB800694D45F82C404FF0B0442568D44325EAC5
:102EC80002064F6817F4801F01D042EA05064FF04A
:102ED800B0452E606D6804EA05064F6817F4001FB8
:102EE80001D042EA05064FF0B0456E60D5F884502F
:102EF80004EA05064F6817F4003F01D042EA0506C8
:102F08004FF0B045C5F88460D5F880502C404E6825
:102F180016F4803F01D042EA05044FF0B042C2F8EF
:102F2800804001330A6832FA03F400F092804FF0CF
:102F3800010C0CFA03FC1CEA0202F2D04C6804F003
:102F48000304013C012C81D94C6804F00304032CD0
:102F58000CD0C4685D004FF0030C0CFA05FC24EAA1
:102F68000C0C8C68AC4044EA0C04C4604C6804F057
:102F78000304022C3FF47FAF04684FEA430E4FF07E
:102F8800030C0CFA0EFC24EA0C0C4C6804F0030445
:102F980004FA0EF444EA0C0404604C6814F4403F4C
:102FA800BFD02E4CD4F8F45045F00205C4F8F450C4
:102FB800D4F8F44004F002040194019C4FEA930C05
:102FC8000CF10205244C54F8255003F003044FEA91
:102FD800840E0F2404FA0EF425EA0405204CA042BE
:102FE8003FF460AF04F58064A04222D004F5806409
:102FF800A04220D004F58064A0421ED004F580646D
:10300800A0421CD004F58064A0421AD004F5806464
:10301800A04218D004F58064A04216D004F580645C
:10302800A04214D004F58064A0423FF439AF0A24CA
:1030380039E7012437E7022435E7032433E704247A
:1030480031E705242FE706242DE707242BE708247A
:1030580029E703B0F0BD00BF00040058004402583F
:103068000000025838B50446224BDB6803F007031A
:10307800062B07D01F4BDB6803F03F03834236D093
:10308800012038BD1B4AD36823F03F030343D360B4
:1030980000F094F80546174B5B6813F4005F07D1FE
:1030A80000F08CF8431BB3F57A7FF4D90120E8E7E8
:1030B8002E2C18BF1E2C08D02D2C14BF0023012342
:1030C8001D2C02D00BB90020DBE700F077F804468E
:1030D800084BDB6813F4803F07D100F06FF8001B42
:1030E800B0F57A7FF4D90120CBE70020C9E70020AA
:1030F800C7E700BF00480258104B1B780BB90120E6
:10310800704710B504464FF47A70B0FBF3F30C4ADD
:103118001068B0FBF3F0FEF741F868B90F2C01D93D
:1031280001200AE0002221464FF0FF30FDF7F2FFB0
:10313800044B1C60002000E0012010BD08000024A2
:10314800000000240C00002410B50320FDF7D0FF78
:10315800FEF792FB0F498B69C3F303230E4AD35C36
:1031680003F01F03D8408B6903F00F03D35C03F00F
:103178001F0320FA03F3094A1360094B18600F2054
:10318800FFF7BAFF10B10124204610BD0446FDF731
:10319800FBFDF9E700440258D44F0008040000245E
:1031A80000000024034B1B78034A11680B4413608A
:1031B800704700BF0800002438090024014B186834
:1031C800704700BF38090024014B1868000C70478D
:1031D8000010005C30B4446B0368D3F884106F4A65
:1031E800114041EA8401C3F884100368D3F88410BD
:1031F80021F47F01856B41EA0541C3F88410836B94
:1032080023440468D4F88810114041EA8301C4F8C3
:1032180088100468D4F8881021F4FE01C56B41EACF
:103228000541C4F88810C16B03EB41030468D4F866
:10323800A010114041EA8301C4F8A0100468D4F832
:10324800A01021F4FE01056C41EA0541C4F8A01064
:10325800016C446C04FB01330468D4F8B0101140CD
:1032680041EA8301C4F8B0100468D4F8B01021F41E
:10327800FE01856C41EA0541C4F8B010816CC46C4C
:1032880004FB01330468D4F8AC10114041EA83010F
:10329800C4F8AC10016D446D04FB01330468D4F824
:1032A800F010114041EA8301C4F8F0100468D4F822
:1032B800F01021F47C11856D41EA0541C4F8F01045
:1032C800816D03EB41030468D4F8C0100A4042EA58
:1032D8008303C4F8C0300268D2F8C03023F47C13EA
:1032E800C16D43EA0143C2F8C0300268D2F8C03069
:1032F80023F07C53016E43EA0163C2F8C030436B8C
:10330800274A1A449200C266836B02EB8303036761
:10331800C16B03EBC1034367016C446C04FB01F10F
:1033280003EB81038367816CC46C04FB01F103EB3D
:103338008103C367016D446D04FB01F103EB810355
:10334800C0F88030816D03EBC103C0F88430816E12
:10335800C46D01FB04FC03EB8C03C0F88830046ED9
:1033680004FB01F103EB8103C0F890300D498B4257
:103378000DD9D0F89C3043F02003C0F89C300323CB
:1033880080F89830012007E0002342F8043BD0F889
:1033980090309342F8D8002030BC70470300FFFFFC
:1033A800002B0010FCD3004070B54C68F4B90D69CF
:1033B8008C6825430C6845EA84450E6ACC6944EA62
:1033C80006648E6934434E693443CE683443D0F87A
:1033D8008460806E00FB03F306EB830E46F82350EF
:1033E800CEF804400EF1080E002019E00C698D6833
:1033F80025430C68254345F08045DEE702EB000CC9
:103408009CF803409CF802301B0443EA04639CF8D0
:10341800014043EA0423145C23434EF8043B043080
:10342800CB89024CE35C8342E8D870BDE44F0008C6
:1034380030B595B004464C22A04901A8FDF7CAF85A
:10344800002C00F0388123689D4A934220D094F8DC
:1034580098300BB32268936923F010039361FFF748
:10346800ADFE054623689A6912F0080F1AD0FFF7D7
:10347800A5FE431B0A2BF5D9D4F89C3043F0010371
:10348800C4F89C30032384F89830012015B030BD6F
:1034980003F580736360DAE784F899302046FDF716
:1034A80097F9D7E79A6942F001029A61FFF786FE19
:1034B800054623689A6912F0010F0FD1FFF77EFEC7
:1034C800401B0A28F5D9D4F89C3043F00103C4F80E
:1034D8009C30032384F898300120D7E79A6942F09A
:1034E80002029A61237C012B40D02268936943F041
:1034F80040039361637C012B3ED02268936923F4D7
:1035080080439361A37C012B3CD02268936943F4E8
:10351800805393612268936923F44073A1680B4335
:1035280093612268936923F0A40393612268136965
:1035380023F010031361E368012B29D0002B2CD052
:10354800022B00F09B802268936943F0800393610B
:103558002268136943F010031361E368032B1CD13D
:103568002268936943F02003936116E02268936907
:1035780023F040039361BDE72268936943F48043D5
:103588009361BFE72268936923F480539361C1E78D
:103598002268936943F004039361A3695A1EE3699F
:1035A800013B1B0243EA4263226A013A1343626900
:1035B800013A216843EA0243CB61A368B3F5407F2F
:1035C80062D0236E33B12268D2F8C030616E0B43EB
:1035D800C2F8C030E36D226ED3420DD02168D1F815
:1035E800C83023F00703A26E14A800EB820252F839
:1035F8004C2C1343C1F8C830236C6BB12168D1F847
:10360800BC3023F00703626C14A800EB820252F866
:103618004C2C1343C1F8BC30A36C73B12168D1F8AA
:10362800BC3023F07003E26C14A800EB820252F85D
:103638004C2C43EA0213C1F8BC30236D73B12168E6
:10364800D1F8BC3023F4E063626D14A800EB820269
:1036580052F84C2C43EA0223C1F8BC302268184BBC
:103668009A4222D00023C4F89430C4F89C30012335
:1036780084F898302046FFF7ADFD07E72268936984
:1036880043F02003936188E7A36A013BE26A013AA9
:1036980043EA0223226B013A43EA0213626A013ABF
:1036A800216843EA0243CB608BE76268936823F0A2
:1036B80003039360D6E70120E8E600BF884F0008BF
:1036C80000A0004090F89830013BDBB2012B07D9ED
:1036D800D0F89C3043F00203C0F89C3001207047BA
:1036E800CB680A68D2B9072B0ED08A68DB0643EA92
:1036F80082730A6943EA02434A691343C26E4968FE
:1037080042F82130002070470A69CB691B0243EA5E
:1037180002438A69134343F06053EFE710B40A6920
:1037280042EA4372072B0FD04B698C6843EA8473D3
:10373800006F496800EBC10C40F83120CCF8043028
:1037480000205DF8044B70478B69F1E790F89830DA
:10375800DBB2012B07D0D0F89C3043F00403C0F84B
:103768009C3001207047022380F8983002689369E2
:1037780023F0010393610023C0F89C30184670477A
:1037880038B5044690F89830DBB2022B2BD1036889
:10379800D3F8C00010F07C5F0CD0D3F8C40010F44C
:1037A800001F0FD0D4F89C3043F40073C4F89C3049
:1037B80001201FE0D4F89C3043F02003C4F89C306B
:1037C800012017E0D3F8C450C5F304452B46204622
:1037D800FFF7EAFD22680123AB40C2F8D030C4F8F5
:1037E8009430002006E0D0F89C3043F00803C0F87D
:1037F8009C30012038BD000090F898C05FFA8CFC1E
:10380800BCF1020F40F0DE8070B540290CD0412990
:103818003BD0046D8C4269D8D0F89C3043F020032B
:10382800C0F89C300120BFE00468D4F8A05015F41B
:10383800FE0F0CD0D4F8A45015F07F0F0FD1D0F89C
:103848009C3043F48073C0F89C300120ACE0D0F881
:103858009C3043F02003C0F89C300120A4E0D4F849
:10386800A450C5F3006615F0807F02D0D4F8A050AC
:103878000026D4F8A440C4F305242644456F446CBC
:1038880006FB04F405EB840C37E00468D4F8B05068
:1038980015F4FE0F0CD0D4F8B45015F07F0F0FD1EB
:1038A800D0F89C3043F48073C0F89C3001207BE052
:1038B800D0F89C3043F02003C0F89C30012073E01E
:1038C800D4F8B450C5F3006615F0807F02D0D4F860
:1038D800B0500026D4F8B440C4F305242644856FBC
:1038E800C46C06FB04F405EB840C06E0C56F446D5C
:1038F80001FB04F405EB840C0026DCF8004004F01E
:103908008044546074BBDCF80040C4F38A441460FB
:10391800DCF8004004F000549460DCF8004004F047
:1039280000441461BCF80440D461DCF8044004F499
:103938007024D460DCF8044004F480145461DCF88A
:10394800044004F4001494619CF8074004F07F04D8
:103958001462DCF80440E40F54620CF1080E4FF0D6
:10396800000C0BE0DCF8004024F060441460CFE762
:103978001EF80C4003F80C400CF1010CD489154DCD
:103988002C5D6445F4D840290AD041290DD01F295F
:103998000FD80268012303FA01F1C2F8981002E077
:1039A8000368C3F8A860002070BD0368C3F8B86056
:1039B800F9E701F01F010268012303FA01F1C2F8D7
:1039C8009C10F0E7D0F89C3043F00803C0F89C3016
:1039D80001207047E44F000890F89830013BDBB2B3
:1039E800012B07D9D0F89C3043F00203C0F89C3073
:1039F8000120704710B403689C6D0C4224D1DC6D23
:103A080044F00104DC6511F4007F05D00468D4F8A3
:103A1800E0301343C4F8E03011F4806F05D0046837
:103A2800D4F8E4301A43C4F8E4200068436D0C4A23
:103A38000A40134343650B4A536943EA9171516144
:103A480000205DF8044B70479C6D31EA040402D0F5
:103A58000324DC65D7E7DC6D44F00204DC65D2E7BB
:103A6800FFFFCF3F00A8004070477047704770477E
:103A78007047704770477047704770477047704786
:103A880070477047704770472DE9F04F83B0044680
:103A9800B04B1A695B699B0703EA82730193036859
:103AA8001A6D02F4704A5A6D0AEA020A1A6D02F097
:103AB8000F095A6D09EA02091A6D02F0F0085A6DE9
:103AC80008EA02081E6D06F071565A6D16401F6D01
:103AD80007F060775A6D17405D6DD3F850B015F454
:103AE800807F02D01BF4807F64D115F4806F02D0F0
:103AF8001BF4806F67D1019B002B74D1BAF1000FC2
:103B08007CD1B9F1000F40F08580B8F1000F40F08A
:103B18008D8015F4006F03D01BF4006F40F0928085
:103B280015F4007F03D01BF4007F40F0968015F455
:103B3800002F03D01BF4002F40F09F8015F4803F26
:103B480003D01BF4803F40F0A38015F4802F03D0EE
:103B58001BF4802F40F0A78015F4003F0FD01BF412
:103B6800003F0CD023684FF400321A65794B0022CD
:103B78001A61D4F89C3043F08003C4F89C30002FBD
:103B880040F09C804EB123681E65B20F714B1A61DC
:103B9800D4F89C301E43C4F89C6022686E4B9A424D
:103BA80000F09680D4F89C30002B40F0F78003B0EA
:103BB800BDE8F08F4FF480721A65664B00221A61D7
:103BC800FFF75BFF91E72368D3F8DC10D3F8E42014
:103BD8004FF4806018655F4B002018611140204643
:103BE800FFF747FF87E7236800221A6501998A0FC4
:103BF800584B1A612046FFF737FF7FE72368C3F861
:103C080050A04FEA9A72534B1A6151462046FFF76B
:103C18002CFF76E72368C3F850904FEA99724D4B12
:103C28001A6149462046FCF7F9FE6EE72368C3F897
:103C380050804FEA9872474B1A6141462046FFF779
:103C480015FF66E723684FF400621A65414B0022AE
:103C58001A612046FFF70BFF62E72368D3F8D810F4
:103C6800D3F8E0204FF4007018653A4B0020186133
:103C780011402046FFF7FCFE59E723684FF4002265
:103C88001A65344B00221A612046FFF7F3FE55E708
:103C980023684FF480321A652E4B00221A612046A1
:103CA800FFF7E9FE51E723684FF480221A65294B94
:103CB80000221A612046FFF7DFFE4DE723681F65E3
:103CC800BA0F244B1A6139462046FFF7D8FE59E748
:103CD80063689A6812F0030F3FF464AF196A01F041
:103CE8000F015A6A186A00F03008586A08EA000892
:103CF8001F6A07F4C077586A07401E6A06F4FC4634
:103D0800586A06401D6A05F4F025586A0540D3F83C
:103D18002490D3F820A0114020D1B8F1000F22D16F
:103D280019F0400F02D01AF0400F24D17FBB36B1F2
:103D380063681E62D4F89C301E43C4F89C60002D52
:103D48003FF430AF63681D62D4F89C301D43C4F85B
:103D58009C5027E700A8004000A0004019622046B8
:103D6800FFF78EFED9E76368C3F8208041462046F6
:103D7800FFF787FED4E76368D96BDA6B40201862D7
:103D880002F03F02090C2046FFF77CFECEE763688D
:103D98001F6239462046FFF776FEC8E72046FFF740
:103DA8006DFE04E710B4036A046A24F00104046297
:103DB800846924F0F00C4CEA021223F00A030B4346
:103DC800826103625DF8044B704710B4046A24F002
:103DD800100404628469036A24F4704C4CEA0232C9
:103DE80023F0A00343EA0113826103625DF8044BE8
:103DF800704700008268034B13400B4343F00703EE
:103E0800836070478FFFCFFF90F83D30DBB2012B06
:103E18003AD1022380F83D300268D36843F00103A9
:103E2800D36003681A4AB3F1804F18BF93421DD07C
:103E3800A2F57C42934219D002F58062934215D0D4
:103E480002F58062934211D002F5784293420DD078
:103E5800A2F56C42934209D002F59432934205D000
:103E68001A6842F001021A60002070479968094AEE
:103E78000A40062A18BFB2F5803F07D01A6842F0F8
:103E880001021A6000207047012070470020704727
:103E980000000140070001007047704770477047F5
:103EA80010B5044603681A6912F0020F11D0DA68D7
:103EB80012F0020F0DD06FF002021A61012303778E
:103EC80003689B6913F0030F79D0FFF7E6FF00231F
:103ED800237723681A6912F0040F12D0DA6812F0F7
:103EE800040F0ED06FF004021A61022323772368AF
:103EF8009B6913F4407F68D02046FFF7CEFF00236C
:103F0800237723681A6912F0080F12D0DA6812F0C2
:103F1800080F0ED06FF008021A6104232377236874
:103F2800DB6913F0030F57D02046FFF7B6FF0023D5
:103F3800237723681A6912F0100F12D0DA6812F08A
:103F4800100F0ED06FF010021A6108232377236830
:103F5800DB6913F4407F46D02046FFF79EFF00231D
:103F6800237723681A6912F0010F03D0DA6812F078
:103F7800010F3FD123681A6912F0800F03D0DA6865
:103F880012F0800F3DD123681A6912F4807F03D0A4
:103F9800DA6812F0800F3BD123681A6912F0400FDB
:103FA80003D0DA6812F0400F39D123681A6912F089
:103FB800200F03D0DA6812F0200F37D110BDFFF7B9
:103FC8006BFF2046FFF76AFF81E72046FFF764FF93
:103FD8002046FFF763FF92E72046FFF75DFF204684
:103FE800FFF75CFFA3E72046FFF756FF2046FFF7E1
:103FF80055FFB4E76FF001021A612046FCF768FD2F
:10400800B8E76FF080021A61204600F0C4F9BAE7F9
:104018006FF480721A61204600F0BEF9BCE76FF0B9
:1040280040021A612046FFF73AFFBEE76FF0200210
:104038001A61204600F0AEF9C0E7000030B5036809
:10404800394A904214BF4FF0000E4FF0010EB0F104
:10405800804F14BF72464EF00102AAB9334CA042F9
:1040680014BF00240124324DA8420DD064B904F1D4
:10407800804404F58234A04214BF0024012405F5CD
:104088000065A84200D01CB123F070034C6823439C
:1040980012BB264A904214BF00220122244CA0429F
:1040A8001AD0CAB902F1804202F58232904214BF96
:1040B8000022012204F50064A0420DD062B91D4A15
:1040C800904214BF0022012204F59A34A04203D082
:1040D80012B9194A904204D123F4407CCB6843EAD0
:1040E8000C0323F080034A69134303608A68C262A1
:1040F8000A688262114A904214BF73464EF0010367
:1041080063B90C4B984214BF0023012302F5705287
:10411800904203D013B9084B984201D10B6903634D
:104128000123436130BD00BF00000140000800408A
:1041380000040040004401400048014000040140E0
:1041480060B310B5044690F83D3013B3022384F8E9
:104158003D30214651F8040BFFF770FF012384F826
:10416800483084F83E3084F83F3084F8403084F892
:10417800413084F8423084F8433084F8443084F87D
:10418800453084F8463084F8473084F83D300020C4
:1041980010BD80F83C30FCF76BFED7E70120704774
:1041A80010B4846824F47F4C42EA03220A4342EAAA
:1041B8000C0282605DF8044B7047000090F83C30B8
:1041C800012B00F08F8010B50446012380F83C30A5
:1041D800022380F83D3002689068434B03409360A7
:1041E8000B68702B55D031D8502B6CD00CD9602B64
:1041F8002AD1CA6849682068FFF7E7FD602120686E
:10420800FFF7F8FD002035E0402B0AD1CA6849685D
:104218002068FFF7C7FD40212068FFF7EBFD00206D
:1042280028E05BD8202B07D003D9302B04D00120FD
:1042380020E00BB1102B05D119462068FFF7DAFDF5
:10424800002017E0012015E0012013E0B3F5005F1E
:104258002CD00BD9254A9342EED012D9244A934246
:10426800EAD010329342E7D0012003E0B3F5805F33
:1042780036D10020012384F83D30002384F83C30F7
:1042880010BDB3F5801FD7D0B3F1101FD4D00120D3
:10429800F0E7CB684A6889682068FFF781FF2268E1
:1042A800936843F0770393600020E3E7CB684A689C
:1042B80089682068FFF774FF2268936843F4804395
:1042C80093600020D6E7CA6849682068FFF76AFD4E
:1042D80050212068FFF78EFD0020CBE70120C9E7B9
:1042E8000120C7E7022070478800CEFF2000100099
:1042F8003000100090F83C30012B45D070B40123F9
:1043080080F83C30022380F83D3003685A689C6886
:104318001E4E1F4DAB4218BFB34203D122F47002A8
:104328004D682A4322F070020D682A435A600368D8
:10433800164AB3F1804F18BF934217D0A2F57C42BA
:10434800934213D002F5806293420FD002F5806247
:1043580093420BD002F57842934207D0A2F56C4203
:10436800934203D002F59432934204D124F080049E
:104378008A6814439C60012380F83D30002380F84C
:104388003C30184670BC704702207047000001405E
:10439800000401407047704770470000026852E807
:1043A800003F23F4907342E800310029F6D10268F7
:1043B80002F1080353E8001F0D4B0B40083242E896
:1043C80000310029F3D1C36E012B06D02023C0F899
:1043D8008C300023C36643677047026852E8003F89
:1043E80023F0100342E800310029F6D1EEE700BFC0
:1043F800FEFFFFEF70B586B0044601688368026966
:10440800134342691343C26913430868884A024048
:1044180013430B602268536823F44053E1680B434D
:104428005360A1692268834B9A4201D0236A1943D9
:104438009068814B03400B4393602268D36A23F052
:104448000F03616A0B43D36222687C4B9A4221D0E6
:104458007B4B9A4200F08C807A4B9A4200F0A28003
:10446800794B9A4200F0B580784B9A4200F0C880A8
:10447800774B9A4200F0F480764B9A4200F019810B
:10448800754B9A4200F02C816A4B9A4200F03F81AA
:10449800802333E0714B5B6D03F03803282B65D81C
:1044A800DFE813F02900640064006400640064001D
:1044B800640064004D0164006400640064006400EA
:1044C800640064002B0064006400640064006400FD
:1044D800640064005E0064006400640064006400BA
:1044E80064006400600064006400640064006400A8
:1044F800640064006200012300E008234D498A42F9
:1045080000F02F81E069B0F5004F00F0AF81202B5B
:1045180000F20782202B00F25182DFE813F01E021E
:1045280024024F024F0227024F024F024F022C0271
:104538004F024F024F024F024F024F024F02310209
:104548004F024F024F024F024F024F024F024F02DB
:104558004F024F024F024F024F024F024F023D02DD
:104568001023CBE72023C9E74023C7E78023C5E70B
:104578003A4B5B6D03F00703052B11D8DFE813F006
:104588000600E10008000A000C000E000023B5E751
:104598000823B3E71023B1E72023AFE74023ADE7B3
:1045A8008023ABE72D4B5B6D03F00703052B0ED87B
:1045B800DFE803F003C90507090B00239EE708237A
:1045C8009CE710239AE7202398E7402396E7802367
:1045D80094E7224B5B6D03F00703052B0ED8DFE849
:1045E80003F003B40507090B002387E7082385E7D1
:1045F800102383E7202381E740237FE780237DE79B
:10460800164B5B6D03F00703052B0ED8DFE803F0AC
:10461800039F0507090B002370E708236EE71023A3
:104628006CE720236AE7402368E7802366E700BF3A
:10463800F369FFCF000C0058FFF4FF110010014090
:104648000044004000480040004C0040005000403A
:104658000014014000780040007C004000440258EB
:104668007D4B5B6D03F03803282B20D8DFE803F07F
:10467800151F1F1F1F1F1F1F711F1F1F1F1F1F1FFA
:10468800171F1F1F1F1F1F1F191F1F1F1F1F1F1F40
:104698001B1F1F1F1F1F1F1F1D0001232EE708239D
:1046A8002CE710232AE7202328E7402326E7802346
:1046B80024E7694B5B6D03F00703052B0ED8DFE891
:1046C80003F0034A0507090B002317E7082315E73A
:1046D800102313E7202311E740230FE780230DE77A
:1046E8005D4B5B6D03F00703052B0ED8DFE803F085
:1046F80003350507090B002300E70823FEE610230E
:10470800FCE62023FAE64023F8E68023F6E603F5E4
:104718000E339B6D03F00703052B0ED8DFE803F07B
:10472800031F0507090B0223E8E60823E6E6102322
:10473800E4E62023E2E64023E0E68023DEE60423E5
:10474800DCE60423DAE60423D8E60423D6E60423C9
:10475800D4E60423D2E60423D0E60423CEE60423D9
:10476800CCE6202B27D8022BC0F01A81023B1E2B47
:1047780000F21881DFE813F0500016015600160108
:10478800160116015B001601160116011601160125
:104798001601160160001601160116011601160110
:1047A8001601160116011601160116011601160149
:1047B800160116016C00402B2CD14FF40040626AA0
:1047C800264B33F81220B0FBF2F3656805EB450180
:1047D800994200F2E980B3EB053F00F2E78000263A
:1047E80033463146FBF774FD090241EA10610002C5
:1047F8006B08C0182A46334641F10001FBF768FDF3
:10480800A0F54072164B9A4200F2D2802368D86015
:104818003046D4E00120D2E0FEF70AF90028CED1D4
:104828000020CCE003A8FEF715F90498F6E76846DF
:10483800FEF70CFA0198F1E7074B1B6813F0200FFD
:1048480008D0054B1B68C3F3C1030648D840E5E709
:104858000548B4E70348B2E700440258F44F00089B
:10486800FFFC0F000090D00300093D00202B15D855
:10487800202B00F29F80DFE803F031379D9D3A9DA1
:104888009D9D3F9D9D9D9D9D9D9D449D9D9D9D9D07
:104898009D9D9D9D9D9D9D9D9D9D5000402B1BD147
:1048A800626A4D4B33F81230B0FBF3F0626853087C
:1048B80003EB4000B0FBF2F0A0F110024FF6EF73EB
:1048C8009A4279D883B223F00F03C0F34200184309
:1048D8002368D860002072E0012070E0FDF732FA0A
:1048E8000028DDD100206AE0FDF73EFAF8E703A8CA
:1048F800FEF7B0F80498F3E76846FEF7A7F90198C1
:10490800EEE7364B1B6813F0200F08D0334B1B68BB
:10491800C3F3C1033248D840E2E73248C0E7304821
:10492800BEE7402B17D14FF40040626A2A4B33F898
:104938001230B0FBF3F0636800EB5300B0FBF3F008
:10494800A0F110024FF6EF739A4242D8236880B262
:10495800D860002033E0012031E0FDF7F3F90028AA
:10496800E3D100202BE0FDF7FFF9F8E703A8FEF7F5
:1049780071F80498F3E76846FEF768F90198EEE7DE
:10498800164B1B6813F0200F08D0144B1B68C3F399
:10499800C1031348D840E2E71248C6E71048C4E705
:1049A80001200CE001200AE0012008E0012006E0D7
:1049B800012004E0012002E0012000E001200123A1
:1049C800A4F86A30A4F8683000236367A36706B0C8
:1049D80070BD0120F3E700BFF44F000800440258FF
:1049E8000090D00300093D00836A13F0010F06D040
:1049F8000268536823F40033C16A0B435360836A27
:104A080013F0020F06D00268536823F48033016B59
:104A18000B435360836A13F0040F06D0026853688F
:104A280023F48023416B0B435360836A13F0080F10
:104A380006D00268536823F40043816B0B4353602C
:104A4800836A13F0100F06D00268936823F480532A
:104A5800C16B0B439360836A13F0200F06D0026882
:104A6800936823F40053016C0B439360836A13F03B
:104A7800400F0AD00268536823F48013416C0B433B
:104A88005360436CB3F5801F0BD0836A13F0800F1B
:104A980006D00268536823F40023C16C0B435360AB
:104AA80070470268536823F4C003816C0B4353605A
:104AB800EBE72DE9F84305460F4616469946DDF81B
:104AC80020802C68E46937EA04030CBF4FF0010C1E
:104AD8004FF0000CB44532D1B8F1FF3FF1D0FEF7EA
:104AE8006DFBA0EB090040452CD8B8F1000F2BD086
:104AF8002B681A6812F0040FE3D0DA6912F0080F75
:104B080011D1DA6912F4006FDBD04FF400621A6237
:104B18002846FFF743FC2023C5F89030002385F88A
:104B2800843003200CE008241C622846FFF736FC7A
:104B3800C5F89040002385F88430012000E000206B
:104B4800BDE8F8830320FBE70320F9E730B583B01D
:104B580004460023C0F89030FEF730FB0546226873
:104B6800126812F0080F10D123681B6813F0040FA5
:104B780028D12023C4F88830C4F88C300020E0669F
:104B8800206784F8840003B030BD6FF07E43009343
:104B9800034600224FF400112046FFF78AFF002841
:104BA800E2D0226852E8003F23F0800342E8003157
:104BB8000029F6D12023C4F88830002384F88430F3
:104BC8000320E0E76FF07E4300932B4600224FF46A
:104BD80080012046FFF76DFF0028CAD0226852E8FE
:104BE800003F23F4907342E800310029F6D122688F
:104BF80002F1080353E8003F23F00103083242E8BA
:104C080000310029F3D12023C4F88C30002384F824
:104C180084300320B7E778B310B50446D0F888305D
:104C28000BB32423C4F888302268136823F00103E7
:104C380013602046FFF7DEFB012813D0A36ABBB937
:104C48002268536823F4904353602268936823F0E2
:104C58002A0393602268136843F001031360204617
:104C6800FFF774FF10BD80F88430FCF759F9D8E7D6
:104C78002046FFF7B9FEE3E701207047436E2BB9E2
:104C88000123A0F86A30A0F86830704730B4036890
:104C98009A68C2F342629968490F094D6B5C1B011F
:104CA800084C615C93FBF1F3A0F86A30AB5C1B0124
:104CB800A25C93FBF2F3A0F8683030BC704700BFE9
:104CC800145000080C50000890F88430012B18D0BC
:104CD800012380F884302423C0F8883003681A68D8
:104CE800196821F00101196022F00052002343667F
:104CF80001680A602022C0F8882080F884301846AD
:104D080070470220704738B590F88430012B1DD0C9
:104D18000446012380F884302423C0F888300368CF
:104D28001D681A6822F001021A600268936823F06D
:104D3800604319439160FFF7A1FF23681D6020239A
:104D4800C4F88830002084F8840038BD0220FCE7CD
:104D580038B590F88430012B1DD00446012380F823
:104D680084302423C0F8883003681D681A6822F04C
:104D780001021A600268936823F060631943916026
:104D8800FFF77CFF23681D602023C4F888300020CB
:104D980084F8840038BD0220FCE7000070B50D4E91
:104DA8000D4D761BB61006D0002455F8043B01348F
:104DB8009847A642F9D1094E094D761B00F0D4F860
:104DC800B61006D0002455F8043B01349847A64293
:104DD800F9D170BD2850000828500008305000084C
:104DE80028500008830730B548D0541E002A3FD009
:104DF800CAB2034601E0013C3AD303F8012B9D07F0
:104E0800F9D1032C2DD9CDB245EA05250F2C45EA59
:104E1800054536D9A4F1100222F00F0C03F1200E3B
:104E2800E6444FEA121C03F1100242E9045542E934
:104E3800025510327245F8D10CF1010214F00C0F32
:104E480003EB021204F00F0C13D0ACF1040323F0AF
:104E580003030433134442F8045B9342FBD10CF080
:104E680003042CB1CAB21C4403F8012B9C42FBD1A9
:104E780030BD64461346002CF4D1F9E703461446C6
:104E8800BFE71A46A446E0E7024B13B1024800F018
:104E980005B8704700000000B14E00080023014625
:104EA8001A46184600F01AB838B5084B084D5B1B6F
:104EB8009C1007D0043B1D44013C55F80439984721
:104EC800002CF9D1BDE8384000F054B8345000083F
:104ED80030500008704700BF704700BF2DE9F04709
:104EE800DFF880A00646DAF8000098460F4691469B
:104EF800FFF7F0FF1A4B1B68D3F8484124B36568E5
:104F08001F2D26DC5EB96B1C0235DAF800006360E1
:104F180044F82570FFF7E0FF0020BDE8F08704EBB8
:104F280085010123C1F88890D4F88821AB401A4341
:104F3800022EC4F88821C1F80881E4D1D4F88C2164
:104F48001343C4F88C31DEE703F5A674C3F848416F
:104F5800D5E7DAF80000FFF7BFFF4FF0FF30DCE7D6
:104F68001C50000838040024F8B500BFF8BC08BC81
:104F78009E467047F8B500BFF8BC08BC9E4670470F
:104F88000000000000000000000000000000000019
:104F98000000000001000000020000000300000003
:104FA80004000000000000000500000000000000F0
:104FB80000000000000000000600000000000000E3
:104FC80000000000000000000700000000000000D2
:104FD8000102030401020304060708090001020391
:104FE80004050607080C10141820304001000200C0
:104FF8000400060008000A000C0010002000400011
:1050080080000001080402040801010101010103F4
:08501800070100001000002454
:08502000E8B2FF7F010000006F
:08502800914E0008BD020008D2
:0450300099020008D9
:105034000090D0030090D003010000001000000095
:1050440000000000FC02002464030024CC030024BC
:10505400000000000000000000000000000000004C
:10506400000000000000000000000000000000003C
:10507400000000000000000000000000000000002C
:10508400000000000000000000000000000000001C
:10509400000000000000000000000000000000000C
:1050A40000000000000000000000000000000000FC
:1050B40000000000000000000000000000000000EC
:1050C40000000000000000000000000000000000DC
:1050D40000000000000000000000000000000000CC
:1050E40000000000000000000100000000000000BB
:1050F4000E33CDAB34126DE6ECDE05000B00000080
:10510400000000000000000000000000000000009B
:10511400000000000000000000000000000000008B
:10512400000000000000000000000000000000007B
:10513400000000000000000000000000000000006B
:0C54640000000000000000003C090024D3
:0400000508000FC11F
:00000001FF
